{
  "contractName": "Student",
  "abi": [
    {
      "inputs": [
        {
          "internalType": "uint256",
          "name": "",
          "type": "uint256"
        }
      ],
      "name": "data",
      "outputs": [
        {
          "internalType": "string",
          "name": "_rollno",
          "type": "string"
        },
        {
          "internalType": "string",
          "name": "_name",
          "type": "string"
        },
        {
          "internalType": "string",
          "name": "_marks",
          "type": "string"
        }
      ],
      "stateMutability": "view",
      "type": "function",
      "constant": true
    },
    {
      "inputs": [
        {
          "internalType": "string",
          "name": "_rollno",
          "type": "string"
        },
        {
          "internalType": "string",
          "name": "_name",
          "type": "string"
        },
        {
          "internalType": "string",
          "name": "_marks",
          "type": "string"
        }
      ],
      "name": "AddStudent",
      "outputs": [],
      "stateMutability": "nonpayable",
      "type": "function"
    },
    {
      "inputs": [],
      "name": "TotalStudent",
      "outputs": [
        {
          "internalType": "uint256",
          "name": "",
          "type": "uint256"
        }
      ],
      "stateMutability": "view",
      "type": "function",
      "constant": true
    },
    {
      "inputs": [
        {
          "internalType": "uint256",
          "name": "index",
          "type": "uint256"
        }
      ],
      "name": "ViewStudent",
      "outputs": [
        {
          "internalType": "string",
          "name": "",
          "type": "string"
        }
      ],
      "stateMutability": "view",
      "type": "function",
      "constant": true
    }
  ],
  "bytecode": "0x6080604052600060015534801561001557600080fd5b50610c2a806100256000396000f3fe608060405234801561001057600080fd5b506004361061004b5760003560e01c8062a8c8a914610050578063066542bd1461006c57806345d7117c1461009c578063f0ba8440146100ba575b600080fd5b61006a60048036038101906100659190610772565b6100ec565b005b6100866004803603810190610081919061084f565b610193565b6040516100939190610904565b60405180910390f35b6100a46103a9565b6040516100b19190610935565b60405180910390f35b6100d460048036038101906100cf919061084f565b6103b3565b6040516100e393929190610950565b60405180910390f35b60018060008282546100fe91906109cb565b9250508190555060405180606001604052808481526020018381526020018281525060008060015481526020019081526020016000206000820151816000019080519060200190610150929190610575565b50602082015181600101908051906020019061016d929190610575565b50604082015181600201908051906020019061018a929190610575565b50905050505050565b6060600080600084815260200190815260200160002060000180546101b790610a50565b80601f01602080910402602001604051908101604052809291908181526020018280546101e390610a50565b80156102305780601f1061020557610100808354040283529160200191610230565b820191906000526020600020905b81548152906001019060200180831161021357829003601f168201915b505050505090506000806000858152602001908152602001600020600101805461025990610a50565b80601f016020809104026020016040519081016040528092919081815260200182805461028590610a50565b80156102d25780601f106102a7576101008083540402835291602001916102d2565b820191906000526020600020905b8154815290600101906020018083116102b557829003601f168201915b50505050509050600080600086815260200190815260200160002060020180546102fb90610a50565b80601f016020809104026020016040519081016040528092919081815260200182805461032790610a50565b80156103745780601f1061034957610100808354040283529160200191610374565b820191906000526020600020905b81548152906001019060200180831161035757829003601f168201915b5050505050905082828260405160200161039093929190610ba2565b6040516020818303038152906040529350505050919050565b6000600154905090565b60006020528060005260406000206000915090508060000180546103d690610a50565b80601f016020809104026020016040519081016040528092919081815260200182805461040290610a50565b801561044f5780601f106104245761010080835404028352916020019161044f565b820191906000526020600020905b81548152906001019060200180831161043257829003601f168201915b50505050509080600101805461046490610a50565b80601f016020809104026020016040519081016040528092919081815260200182805461049090610a50565b80156104dd5780601f106104b2576101008083540402835291602001916104dd565b820191906000526020600020905b8154815290600101906020018083116104c057829003601f168201915b5050505050908060020180546104f290610a50565b80601f016020809104026020016040519081016040528092919081815260200182805461051e90610a50565b801561056b5780601f106105405761010080835404028352916020019161056b565b820191906000526020600020905b81548152906001019060200180831161054e57829003601f168201915b5050505050905083565b82805461058190610a50565b90600052602060002090601f0160209004810192826105a357600085556105ea565b82601f106105bc57805160ff19168380011785556105ea565b828001600101855582156105ea579182015b828111156105e95782518255916020019190600101906105ce565b5b5090506105f791906105fb565b5090565b5b808211156106145760008160009055506001016105fc565b5090565b6000604051905090565b600080fd5b600080fd5b600080fd5b600080fd5b6000601f19601f8301169050919050565b7f4e487b7100000000000000000000000000000000000000000000000000000000600052604160045260246000fd5b61067f82610636565b810181811067ffffffffffffffff8211171561069e5761069d610647565b5b80604052505050565b60006106b1610618565b90506106bd8282610676565b919050565b600067ffffffffffffffff8211156106dd576106dc610647565b5b6106e682610636565b9050602081019050919050565b82818337600083830152505050565b6000610715610710846106c2565b6106a7565b90508281526020810184848401111561073157610730610631565b5b61073c8482856106f3565b509392505050565b600082601f8301126107595761075861062c565b5b8135610769848260208601610702565b91505092915050565b60008060006060848603121561078b5761078a610622565b5b600084013567ffffffffffffffff8111156107a9576107a8610627565b5b6107b586828701610744565b935050602084013567ffffffffffffffff8111156107d6576107d5610627565b5b6107e286828701610744565b925050604084013567ffffffffffffffff81111561080357610802610627565b5b61080f86828701610744565b9150509250925092565b6000819050919050565b61082c81610819565b811461083757600080fd5b50565b60008135905061084981610823565b92915050565b60006020828403121561086557610864610622565b5b60006108738482850161083a565b91505092915050565b600081519050919050565b600082825260208201905092915050565b60005b838110156108b657808201518184015260208101905061089b565b838111156108c5576000848401525b50505050565b60006108d68261087c565b6108e08185610887565b93506108f0818560208601610898565b6108f981610636565b840191505092915050565b6000602082019050818103600083015261091e81846108cb565b905092915050565b61092f81610819565b82525050565b600060208201905061094a6000830184610926565b92915050565b6000606082019050818103600083015261096a81866108cb565b9050818103602083015261097e81856108cb565b9050818103604083015261099281846108cb565b9050949350505050565b7f4e487b7100000000000000000000000000000000000000000000000000000000600052601160045260246000fd5b60006109d682610819565b91506109e183610819565b9250827fffffffffffffffffffffffffffffffffffffffffffffffffffffffffffffffff03821115610a1657610a1561099c565b5b828201905092915050565b7f4e487b7100000000000000000000000000000000000000000000000000000000600052602260045260246000fd5b60006002820490506001821680610a6857607f821691505b60208210811415610a7c57610a7b610a21565b5b50919050565b600081905092915050565b7f526f6c6c204e6f203a0000000000000000000000000000000000000000000000600082015250565b6000610ac3600983610a82565b9150610ace82610a8d565b600982019050919050565b6000610ae48261087c565b610aee8185610a82565b9350610afe818560208601610898565b80840191505092915050565b7f204e616d65203a00000000000000000000000000000000000000000000000000600082015250565b6000610b40600783610a82565b9150610b4b82610b0a565b600782019050919050565b7f204d61726b73203a000000000000000000000000000000000000000000000000600082015250565b6000610b8c600883610a82565b9150610b9782610b56565b600882019050919050565b6000610bad82610ab6565b9150610bb98286610ad9565b9150610bc482610b33565b9150610bd08285610ad9565b9150610bdb82610b7f565b9150610be78284610ad9565b915081905094935050505056fea2646970667358221220fd9a0f585d743bfcb567dc54b0a5228a8ff05cd0c40103142411b1c116f91f1664736f6c634300080a0033",
  "immutableReferences": {},
  "source": "// SPDX-License-Identifier: MIT\r\npragma solidity >=0.4.22 <0.9.0;\r\n\r\ncontract Student{\r\n    mapping(uint => StudentData) public data;\r\n    uint256 StudentCount = 0;\r\n\r\n    struct StudentData{\r\n            string _rollno;\r\n            string _name;\r\n            string _marks;\r\n        }\r\n\r\n    function AddStudent(string memory _rollno, string memory _name, string memory _marks) public {\r\n        StudentCount += 1;\r\n        data[StudentCount] = StudentData(_rollno, _name, _marks);\r\n    }\r\n    function TotalStudent() public view returns(uint){\r\n        return StudentCount;\r\n    }\r\n    function ViewStudent(uint index) public view returns(string memory){\r\n        string memory TR = data[index]._rollno;\r\n        string memory TN = data[index]._name;\r\n        string memory TM = data[index]._marks;\r\n        return string(abi.encodePacked(\"Roll No :\",TR,\" Name :\",TN,\" Marks :\",TM));\r\n\r\n    }\r\n}",
  "sourcePath": "/home/talha/Thor/contracts/Student.sol",
  "compiler": {
    "name": "solc",
    "version": "0.8.10+commit.fc410830.Emscripten.clang"
  },
  "schemaVersion": "3.4.4",
  "updatedAt": "2021-12-30T07:40:40.253Z",
  "networkType": "ethereum",
  "devdoc": {
    "kind": "dev",
    "methods": {},
    "version": 1
  },
  "userdoc": {
    "kind": "user",
    "methods": {},
    "version": 1
  }
}