{
  "contractName": "Validation",
  "abi": [
    {
      "inputs": [
        {
          "internalType": "string",
          "name": "Username",
          "type": "string"
        },
        {
          "internalType": "string",
          "name": "Password",
          "type": "string"
        },
        {
          "internalType": "string",
          "name": "Email",
          "type": "string"
        }
      ],
      "name": "Signup",
      "outputs": [],
      "stateMutability": "nonpayable",
      "type": "function"
    },
    {
      "inputs": [
        {
          "internalType": "string",
          "name": "Username",
          "type": "string"
        },
        {
          "internalType": "string",
          "name": "Password",
          "type": "string"
        }
      ],
      "name": "Login",
      "outputs": [],
      "stateMutability": "nonpayable",
      "type": "function"
    },
    {
      "inputs": [],
      "name": "CheckUser",
      "outputs": [
        {
          "internalType": "string",
          "name": "",
          "type": "string"
        }
      ],
      "stateMutability": "view",
      "type": "function",
      "constant": true
    },
    {
      "inputs": [
        {
          "internalType": "string",
          "name": "Email",
          "type": "string"
        }
      ],
      "name": "ForgotPassword",
      "outputs": [],
      "stateMutability": "nonpayable",
      "type": "function"
    },
    {
      "inputs": [],
      "name": "checkOtp",
      "outputs": [
        {
          "internalType": "uint256",
          "name": "",
          "type": "uint256"
        }
      ],
      "stateMutability": "view",
      "type": "function",
      "constant": true
    },
    {
      "inputs": [
        {
          "internalType": "uint256",
          "name": "otp",
          "type": "uint256"
        },
        {
          "internalType": "string",
          "name": "password",
          "type": "string"
        },
        {
          "internalType": "string",
          "name": "confirmpassword",
          "type": "string"
        }
      ],
      "name": "ChangePassword",
      "outputs": [],
      "stateMutability": "nonpayable",
      "type": "function"
    },
    {
      "inputs": [],
      "name": "Logout",
      "outputs": [],
      "stateMutability": "nonpayable",
      "type": "function"
    }
  ],
  "bytecode": "0x608060405234801561001057600080fd5b506112b2806100206000396000f3fe608060405234801561001057600080fd5b506004361061007d5760003560e01c8063a027dc5d1161005b578063a027dc5d146100da578063ccef4218146100f6578063d2ecf4f814610112578063d9819da81461011c5761007d565b806380defbbe146100825780638647f1dc1461009e57806387a3eab0146100bc575b600080fd5b61009c60048036038101906100979190610ccd565b610138565b005b6100a66102d1565b6040516100b39190610d9e565b60405180910390f35b6100c4610437565b6040516100d19190610dd9565b60405180910390f35b6100f460048036038101906100ef9190610df4565b6104db565b005b610110600480360381019061010b9190610e9b565b610638565b005b61011a61081c565b005b61013660048036038101906101319190610f3f565b6108d3565b005b60001515600360003373ffffffffffffffffffffffffffffffffffffffff1673ffffffffffffffffffffffffffffffffffffffff16815260200190815260200160002060009054906101000a900460ff1615151461019557600080fd5b806040516020016101a69190611006565b60405160208183030381529060405280519060200120600260003373ffffffffffffffffffffffffffffffffffffffff1673ffffffffffffffffffffffffffffffffffffffff16815260200190815260200160002060405160200161020b9190611112565b604051602081830303815290604052805190602001201461022b57600080fd5b610233610a1b565b600560003373ffffffffffffffffffffffffffffffffffffffff1673ffffffffffffffffffffffffffffffffffffffff168152602001908152602001600020819055506001600460003373ffffffffffffffffffffffffffffffffffffffff1673ffffffffffffffffffffffffffffffffffffffff16815260200190815260200160002060006101000a81548160ff02191690831515021790555050565b606060011515600360003373ffffffffffffffffffffffffffffffffffffffff1673ffffffffffffffffffffffffffffffffffffffff16815260200190815260200160002060009054906101000a900460ff16151514156103fb57600160003373ffffffffffffffffffffffffffffffffffffffff1673ffffffffffffffffffffffffffffffffffffffff16815260200190815260200160002080546103769061104c565b80601f01602080910402602001604051908101604052809291908181526020018280546103a29061104c565b80156103ef5780601f106103c4576101008083540402835291602001916103ef565b820191906000526020600020905b8154815290600101906020018083116103d257829003601f168201915b50505050509050610434565b6040518060400160405280601b81526020017f4e6f20557365722c20506c65617365204c6f67696e204669727374000000000081525090505b90565b600060011515600460003373ffffffffffffffffffffffffffffffffffffffff1673ffffffffffffffffffffffffffffffffffffffff16815260200190815260200160002060009054906101000a900460ff1615151461049657600080fd5b600560003373ffffffffffffffffffffffffffffffffffffffff1673ffffffffffffffffffffffffffffffffffffffff16815260200190815260200160002054905090565b60001515600360003373ffffffffffffffffffffffffffffffffffffffff1673ffffffffffffffffffffffffffffffffffffffff16815260200190815260200160002060009054906101000a900460ff1615151461053857600080fd5b82600160003373ffffffffffffffffffffffffffffffffffffffff1673ffffffffffffffffffffffffffffffffffffffff168152602001908152602001600020908051906020019061058b929190610ad0565b50816000803373ffffffffffffffffffffffffffffffffffffffff1673ffffffffffffffffffffffffffffffffffffffff16815260200190815260200160002090805190602001906105de929190610ad0565b5080600260003373ffffffffffffffffffffffffffffffffffffffff1673ffffffffffffffffffffffffffffffffffffffff1681526020019081526020016000209080519060200190610632929190610ad0565b50505050565b60001515600360003373ffffffffffffffffffffffffffffffffffffffff1673ffffffffffffffffffffffffffffffffffffffff16815260200190815260200160002060009054906101000a900460ff1615151461069557600080fd5b816040516020016106a69190611006565b60405160208183030381529060405280519060200120600160003373ffffffffffffffffffffffffffffffffffffffff1673ffffffffffffffffffffffffffffffffffffffff16815260200190815260200160002060405160200161070b9190611112565b604051602081830303815290604052805190602001201461072b57600080fd5b8060405160200161073c9190611006565b604051602081830303815290604052805190602001206000803373ffffffffffffffffffffffffffffffffffffffff1673ffffffffffffffffffffffffffffffffffffffff1681526020019081526020016000206040516020016107a09190611112565b60405160208183030381529060405280519060200120146107c057600080fd5b6001600360003373ffffffffffffffffffffffffffffffffffffffff1673ffffffffffffffffffffffffffffffffffffffff16815260200190815260200160002060006101000a81548160ff0219169083151502179055505050565b60011515600360003373ffffffffffffffffffffffffffffffffffffffff1673ffffffffffffffffffffffffffffffffffffffff16815260200190815260200160002060009054906101000a900460ff1615151461087957600080fd5b6000600360003373ffffffffffffffffffffffffffffffffffffffff1673ffffffffffffffffffffffffffffffffffffffff16815260200190815260200160002060006101000a81548160ff021916908315150217905550565b806040516020016108e49190611006565b604051602081830303815290604052805190602001208260405160200161090b9190611006565b604051602081830303815290604052805190602001201461092b57600080fd5b6000600560003373ffffffffffffffffffffffffffffffffffffffff1673ffffffffffffffffffffffffffffffffffffffff16815260200190815260200160002054141561097857600080fd5b82600560003373ffffffffffffffffffffffffffffffffffffffff1673ffffffffffffffffffffffffffffffffffffffff16815260200190815260200160002054146109c357600080fd5b816000803373ffffffffffffffffffffffffffffffffffffffff1673ffffffffffffffffffffffffffffffffffffffff1681526020019081526020016000209080519060200190610a15929190610ad0565b50505050565b600080620f423f424433604051602001610a37939291906111c4565b6040516020818303038152906040528051906020012060001c610a5a9190611230565b9050600681604051602001610a6f9190611261565b6040516020818303038152906040525114610acb57620f423f424433604051602001610a9d939291906111c4565b6040516020818303038152906040528051906020012060001c610ac09190611230565b905080915050610acd565b505b90565b828054610adc9061104c565b90600052602060002090601f016020900481019282610afe5760008555610b45565b82601f10610b1757805160ff1916838001178555610b45565b82800160010185558215610b45579182015b82811115610b44578251825591602001919060010190610b29565b5b509050610b529190610b56565b5090565b5b80821115610b6f576000816000905550600101610b57565b5090565b6000604051905090565b600080fd5b600080fd5b600080fd5b600080fd5b6000601f19601f8301169050919050565b7f4e487b7100000000000000000000000000000000000000000000000000000000600052604160045260246000fd5b610bda82610b91565b810181811067ffffffffffffffff82111715610bf957610bf8610ba2565b5b80604052505050565b6000610c0c610b73565b9050610c188282610bd1565b919050565b600067ffffffffffffffff821115610c3857610c37610ba2565b5b610c4182610b91565b9050602081019050919050565b82818337600083830152505050565b6000610c70610c6b84610c1d565b610c02565b905082815260208101848484011115610c8c57610c8b610b8c565b5b610c97848285610c4e565b509392505050565b600082601f830112610cb457610cb3610b87565b5b8135610cc4848260208601610c5d565b91505092915050565b600060208284031215610ce357610ce2610b7d565b5b600082013567ffffffffffffffff811115610d0157610d00610b82565b5b610d0d84828501610c9f565b91505092915050565b600081519050919050565b600082825260208201905092915050565b60005b83811015610d50578082015181840152602081019050610d35565b83811115610d5f576000848401525b50505050565b6000610d7082610d16565b610d7a8185610d21565b9350610d8a818560208601610d32565b610d9381610b91565b840191505092915050565b60006020820190508181036000830152610db88184610d65565b905092915050565b6000819050919050565b610dd381610dc0565b82525050565b6000602082019050610dee6000830184610dca565b92915050565b600080600060608486031215610e0d57610e0c610b7d565b5b600084013567ffffffffffffffff811115610e2b57610e2a610b82565b5b610e3786828701610c9f565b935050602084013567ffffffffffffffff811115610e5857610e57610b82565b5b610e6486828701610c9f565b925050604084013567ffffffffffffffff811115610e8557610e84610b82565b5b610e9186828701610c9f565b9150509250925092565b60008060408385031215610eb257610eb1610b7d565b5b600083013567ffffffffffffffff811115610ed057610ecf610b82565b5b610edc85828601610c9f565b925050602083013567ffffffffffffffff811115610efd57610efc610b82565b5b610f0985828601610c9f565b9150509250929050565b610f1c81610dc0565b8114610f2757600080fd5b50565b600081359050610f3981610f13565b92915050565b600080600060608486031215610f5857610f57610b7d565b5b6000610f6686828701610f2a565b935050602084013567ffffffffffffffff811115610f8757610f86610b82565b5b610f9386828701610c9f565b925050604084013567ffffffffffffffff811115610fb457610fb3610b82565b5b610fc086828701610c9f565b9150509250925092565b600081905092915050565b6000610fe082610d16565b610fea8185610fca565b9350610ffa818560208601610d32565b80840191505092915050565b60006110128284610fd5565b915081905092915050565b7f4e487b7100000000000000000000000000000000000000000000000000000000600052602260045260246000fd5b6000600282049050600182168061106457607f821691505b602082108114156110785761107761101d565b5b50919050565b60008190508160005260206000209050919050565b600081546110a08161104c565b6110aa8186610fca565b945060018216600081146110c557600181146110d657611109565b60ff19831686528186019350611109565b6110df8561107e565b60005b83811015611101578154818901526001820191506020810190506110e2565b838801955050505b50505092915050565b600061111e8284611093565b915081905092915050565b6000819050919050565b61114461113f82610dc0565b611129565b82525050565b600073ffffffffffffffffffffffffffffffffffffffff82169050919050565b60006111758261114a565b9050919050565b60008160601b9050919050565b60006111948261117c565b9050919050565b60006111a682611189565b9050919050565b6111be6111b98261116a565b61119b565b82525050565b60006111d08286611133565b6020820191506111e08285611133565b6020820191506111f082846111ad565b601482019150819050949350505050565b7f4e487b7100000000000000000000000000000000000000000000000000000000600052601260045260246000fd5b600061123b82610dc0565b915061124683610dc0565b92508261125657611255611201565b5b828206905092915050565b600061126d8284611133565b6020820191508190509291505056fea2646970667358221220c9eab2cc3dcbeecdb5580276f7f6e42515ad69c020828b478edd0140334f8dd364736f6c634300080a0033",
  "immutableReferences": {},
  "source": "// SPDX-License-Identifier: MIT\r\npragma solidity >=0.4.22 <0.9.0;\r\n\r\ncontract Validation {\r\n    \r\n    mapping(address => string) private _password;\r\n    mapping(address => string) private _username;\r\n    mapping(address => string) private _email;\r\n    mapping(address => bool) private islogged;\r\n    mapping(address => bool) private isForgot;\r\n    mapping(address => uint) private _otp;\r\n\r\n    function Signup(\r\n        string memory Username,\r\n        string memory Password, \r\n        string memory Email) \r\n        public {\r\n        require(islogged[msg.sender] == false);\r\n        _username[msg.sender] = Username;\r\n        _password[msg.sender] = Password;\r\n        _email[msg.sender] = Email;\r\n    }\r\n    \r\n    function Login(string memory Username, string memory Password) public{\r\n        require(islogged[msg.sender] == false);\r\n        require(keccak256(abi.encodePacked((_username[msg.sender]))) == keccak256(abi.encodePacked((Username))));\r\n        require(keccak256(abi.encodePacked((_password[msg.sender]))) == keccak256(abi.encodePacked((Password))));\r\n        islogged[msg.sender] = true;\r\n    }\r\n\r\n    function CheckUser() public view returns (string memory) {\r\n        if (islogged[msg.sender] == true)\r\n            return _username[msg.sender];\r\n        else\r\n            return\"No User, Please Login First\";\r\n    }\r\n    \r\n    function ForgotPassword(string memory Email) public {\r\n        require (islogged[msg.sender] == false);\r\n        require(keccak256(abi.encodePacked((_email[msg.sender]))) == keccak256(abi.encodePacked((Email))));\r\n        _otp[msg.sender] = rand();\r\n        isForgot[msg.sender] = true;\r\n    }\r\n    \r\n    function checkOtp() public view returns(uint) {\r\n        require(isForgot[msg.sender] == true);\r\n        return _otp[msg.sender];\r\n    }\r\n    \r\n    function ChangePassword(uint otp, string memory password, string memory confirmpassword) public{\r\n        require(keccak256(abi.encodePacked((password))) == keccak256(abi.encodePacked((confirmpassword))));\r\n        require(_otp[msg.sender] != 0);\r\n        require(_otp[msg.sender] == otp);\r\n        \r\n        _password[msg.sender] = password;\r\n    }\r\n\r\n    function Logout() public{\r\n        require(islogged[msg.sender] == true);\r\n        islogged[msg.sender] = false;\r\n    }\r\n    \r\n    function rand() internal view returns(uint Ran){\r\n        uint RanNum = uint(keccak256(abi.encodePacked(block.timestamp, block.difficulty, msg.sender))) % 999999;\r\n        while(bytes(abi.encodePacked(RanNum)).length != 6){\r\n            RanNum = uint(keccak256(abi.encodePacked(block.timestamp, block.difficulty, msg.sender))) % 999999;\r\n            return RanNum;\r\n        }\r\n    }\r\n}\r\n",
  "sourcePath": "/home/talha/Thor/contracts/Validation.sol",
  "compiler": {
    "name": "solc",
    "version": "0.8.10+commit.fc410830.Emscripten.clang"
  },
  "schemaVersion": "3.4.4",
  "updatedAt": "2021-12-30T07:40:41.327Z",
  "networkType": "ethereum",
  "devdoc": {
    "kind": "dev",
    "methods": {},
    "version": 1
  },
  "userdoc": {
    "kind": "user",
    "methods": {},
    "version": 1
  }
}